{
  "_format": "hh-sol-artifact-1",
  "contractName": "NoteChain",
  "sourceName": "contracts/NoteChain.sol",
  "abi": [
    {
      "inputs": [],
      "stateMutability": "nonpayable",
      "type": "constructor"
    },
    {
      "anonymous": false,
      "inputs": [
        {
          "indexed": true,
          "internalType": "address",
          "name": "_authorAddress",
          "type": "address"
        },
        {
          "indexed": false,
          "internalType": "uint256",
          "name": "_paidAmount",
          "type": "uint256"
        },
        {
          "indexed": false,
          "internalType": "uint256",
          "name": "_feeTimestamp",
          "type": "uint256"
        }
      ],
      "name": "editEvent",
      "type": "event"
    },
    {
      "anonymous": false,
      "inputs": [
        {
          "indexed": true,
          "internalType": "address",
          "name": "_authorAddress",
          "type": "address"
        },
        {
          "indexed": false,
          "internalType": "uint256",
          "name": "_paidAmount",
          "type": "uint256"
        },
        {
          "indexed": false,
          "internalType": "uint256",
          "name": "_feeTimestamp",
          "type": "uint256"
        }
      ],
      "name": "registerEvent",
      "type": "event"
    },
    {
      "anonymous": false,
      "inputs": [
        {
          "indexed": true,
          "internalType": "address",
          "name": "_authorAddress",
          "type": "address"
        },
        {
          "indexed": false,
          "internalType": "uint256",
          "name": "_paidAmount",
          "type": "uint256"
        },
        {
          "indexed": false,
          "internalType": "uint256",
          "name": "_feeTimestamp",
          "type": "uint256"
        }
      ],
      "name": "unregisterEvent",
      "type": "event"
    },
    {
      "inputs": [],
      "name": "contractAddress",
      "outputs": [
        {
          "internalType": "address",
          "name": "",
          "type": "address"
        }
      ],
      "stateMutability": "view",
      "type": "function"
    },
    {
      "inputs": [],
      "name": "contractManager",
      "outputs": [
        {
          "internalType": "address",
          "name": "",
          "type": "address"
        }
      ],
      "stateMutability": "view",
      "type": "function"
    },
    {
      "inputs": [],
      "name": "contractOwner",
      "outputs": [
        {
          "internalType": "address",
          "name": "",
          "type": "address"
        }
      ],
      "stateMutability": "view",
      "type": "function"
    },
    {
      "inputs": [],
      "name": "editPrice",
      "outputs": [
        {
          "internalType": "uint256",
          "name": "",
          "type": "uint256"
        }
      ],
      "stateMutability": "view",
      "type": "function"
    },
    {
      "inputs": [],
      "name": "getBootstrap",
      "outputs": [
        {
          "internalType": "uint256",
          "name": "",
          "type": "uint256"
        },
        {
          "internalType": "uint256",
          "name": "",
          "type": "uint256"
        },
        {
          "components": [
            {
              "internalType": "bool",
              "name": "isRegistered",
              "type": "bool"
            },
            {
              "internalType": "string",
              "name": "authorName",
              "type": "string"
            },
            {
              "internalType": "uint256",
              "name": "registerTime",
              "type": "uint256"
            },
            {
              "internalType": "uint256",
              "name": "lastEditTime",
              "type": "uint256"
            },
            {
              "internalType": "string",
              "name": "ipfsCurrentFileHash",
              "type": "string"
            },
            {
              "internalType": "string",
              "name": "ipfsPreviousFileHash",
              "type": "string"
            }
          ],
          "internalType": "struct NoteChain.Profile",
          "name": "",
          "type": "tuple"
        }
      ],
      "stateMutability": "view",
      "type": "function"
    },
    {
      "inputs": [
        {
          "internalType": "string",
          "name": "_authorName",
          "type": "string"
        }
      ],
      "name": "registerNewAuthor",
      "outputs": [],
      "stateMutability": "payable",
      "type": "function"
    },
    {
      "inputs": [],
      "name": "registerPrice",
      "outputs": [
        {
          "internalType": "uint256",
          "name": "",
          "type": "uint256"
        }
      ],
      "stateMutability": "view",
      "type": "function"
    },
    {
      "inputs": [],
      "name": "removeRegisteredAuthor",
      "outputs": [],
      "stateMutability": "payable",
      "type": "function"
    },
    {
      "inputs": [
        {
          "internalType": "string",
          "name": "_newAuthorName",
          "type": "string"
        }
      ],
      "name": "setAuthorName",
      "outputs": [],
      "stateMutability": "payable",
      "type": "function"
    },
    {
      "inputs": [
        {
          "internalType": "address",
          "name": "_newContractManager",
          "type": "address"
        }
      ],
      "name": "setContractManager",
      "outputs": [],
      "stateMutability": "nonpayable",
      "type": "function"
    },
    {
      "inputs": [
        {
          "internalType": "uint256",
          "name": "_newEditPrice",
          "type": "uint256"
        }
      ],
      "name": "setEditPrice",
      "outputs": [],
      "stateMutability": "nonpayable",
      "type": "function"
    },
    {
      "inputs": [
        {
          "internalType": "string",
          "name": "_newIpfsFileHash",
          "type": "string"
        }
      ],
      "name": "setIpfsFileHash",
      "outputs": [],
      "stateMutability": "payable",
      "type": "function"
    },
    {
      "inputs": [
        {
          "internalType": "uint256",
          "name": "_newRegisterPrice",
          "type": "uint256"
        }
      ],
      "name": "setRegisterPrice",
      "outputs": [],
      "stateMutability": "nonpayable",
      "type": "function"
    },
    {
      "inputs": [
        {
          "internalType": "address payable",
          "name": "_withdrawReceiver",
          "type": "address"
        }
      ],
      "name": "withdrawAllContractBalance",
      "outputs": [],
      "stateMutability": "nonpayable",
      "type": "function"
    },
    {
      "inputs": [
        {
          "internalType": "address payable",
          "name": "_withdrawReceiver",
          "type": "address"
        },
        {
          "internalType": "uint256",
          "name": "_withdrawAmount",
          "type": "uint256"
        }
      ],
      "name": "withdrawPartContractBalance",
      "outputs": [],
      "stateMutability": "nonpayable",
      "type": "function"
    },
    {
      "stateMutability": "payable",
      "type": "receive"
    }
  ],
  "bytecode": "0x608060405234801561001057600080fd5b50600080546001600160a01b031990811630178255600180548216339081179091556002805490921617905560038190556004556119f5806100536000396000f3fe6080604052600436106100ec5760003560e01c8063ac0018f61161008a578063d9290af911610059578063d9290af91461023f578063e18426e214610263578063f6b4dfb414610283578063ff7a38f3146102a357600080fd5b8063ac0018f6146101bf578063b39e12cf146101c7578063ce606ee0146101ff578063d8dbe4c91461021f57600080fd5b80636e8754ac116100c65780636e8754ac1461014d57806391c397101461017657806391ded7da1461018c578063a27b8a171461019f57600080fd5b80631e504c9c146100f85780632f09a9c61461011a57806369b5fb581461013a57600080fd5b366100f357005b600080fd5b34801561010457600080fd5b506101186101133660046114b1565b6102b6565b005b34801561012657600080fd5b506101186101353660046114e2565b610400565b61011861014836600461150e565b6105d7565b34801561015957600080fd5b5061016360045481565b6040519081526020015b60405180910390f35b34801561018257600080fd5b5061016360035481565b61011861019a36600461150e565b6107d0565b3480156101ab57600080fd5b506101186101ba3660046114b1565b610997565b610118610adc565b3480156101d357600080fd5b506002546101e7906001600160a01b031681565b6040516001600160a01b03909116815260200161016d565b34801561020b57600080fd5b506001546101e7906001600160a01b031681565b34801561022b57600080fd5b5061011861023a366004611580565b610d46565b34801561024b57600080fd5b50610254610eab565b60405161016d939291906115ea565b34801561026f57600080fd5b5061011861027e366004611580565b611138565b34801561028f57600080fd5b506000546101e7906001600160a01b031681565b6101186102b136600461150e565b6112b9565b336102ff5760405162461bcd60e51b815260206004820152601460248201527377726f6e672063616c6c6572206164647265737360601b60448201526064015b60405180910390fd5b3332146103455760405162461bcd60e51b815260206004820152601460248201527377726f6e67206f726967696e206164647265737360601b60448201526064016102f6565b333b1561038c5760405162461bcd60e51b815260206004820152601560248201527418dbdb9d1c9858dd1cc81b9bdd08185b1b1bddd959605a1b60448201526064016102f6565b6001546001600160a01b03163314806103af57506002546001600160a01b031633145b6103fb5760405162461bcd60e51b815260206004820152601560248201527f796f7520617265206e6f742061206d616e61676572000000000000000000000060448201526064016102f6565b600355565b336104445760405162461bcd60e51b815260206004820152601460248201527377726f6e672063616c6c6572206164647265737360601b60448201526064016102f6565b33321461048a5760405162461bcd60e51b815260206004820152601460248201527377726f6e67206f726967696e206164647265737360601b60448201526064016102f6565b333b156104d15760405162461bcd60e51b815260206004820152601560248201527418dbdb9d1c9858dd1cc81b9bdd08185b1b1bddd959605a1b60448201526064016102f6565b6001546001600160a01b03163314806104f457506002546001600160a01b031633145b6105405760405162461bcd60e51b815260206004820152601560248201527f796f7520617265206e6f742061206d616e61676572000000000000000000000060448201526064016102f6565b6000546001600160a01b03163181111561059c5760405162461bcd60e51b815260206004820152601760248201527f696e76616c696420776974686472617720616d6f756e7400000000000000000060448201526064016102f6565b6040516001600160a01b0383169082156108fc029083906000818181858888f193505050501580156105d2573d6000803e3d6000fd5b505050565b3361061b5760405162461bcd60e51b815260206004820152601460248201527377726f6e672063616c6c6572206164647265737360601b60448201526064016102f6565b3332146106615760405162461bcd60e51b815260206004820152601460248201527377726f6e67206f726967696e206164647265737360601b60448201526064016102f6565b333b156106a85760405162461bcd60e51b815260206004820152601560248201527418dbdb9d1c9858dd1cc81b9bdd08185b1b1bddd959605a1b60448201526064016102f6565b3360009081526005602052604090205460ff16151560011461070c5760405162461bcd60e51b815260206004820152601560248201527f796f7520617265206e6f7420616e20617574686f72000000000000000000000060448201526064016102f6565b600454341461075d5760405162461bcd60e51b815260206004820152601860248201527f696e636f72726563742065646974206665652076616c7565000000000000000060448201526064016102f6565b33600090815260056020526040902060010161077a828483611769565b50336000818152600560209081526040918290204260039091018190558251348152918201527f4eeaf30c117f0ae44a7f300429190e8bc8658cef3454b9e76f61a4d78625b5fc91015b60405180910390a25050565b336108145760405162461bcd60e51b815260206004820152601460248201527377726f6e672063616c6c6572206164647265737360601b60448201526064016102f6565b33321461085a5760405162461bcd60e51b815260206004820152601460248201527377726f6e67206f726967696e206164647265737360601b60448201526064016102f6565b333b156108a15760405162461bcd60e51b815260206004820152601560248201527418dbdb9d1c9858dd1cc81b9bdd08185b1b1bddd959605a1b60448201526064016102f6565b3360009081526005602052604090205460ff1615156001146109055760405162461bcd60e51b815260206004820152601560248201527f796f7520617265206e6f7420616e20617574686f72000000000000000000000060448201526064016102f6565b60045434146109565760405162461bcd60e51b815260206004820152601860248201527f696e636f72726563742065646974206665652076616c7565000000000000000060448201526064016102f6565b33600090815260056020819052604090912090810190610979906004018261182a565b5033600090815260056020526040902060040161077a828483611769565b336109db5760405162461bcd60e51b815260206004820152601460248201527377726f6e672063616c6c6572206164647265737360601b60448201526064016102f6565b333214610a215760405162461bcd60e51b815260206004820152601460248201527377726f6e67206f726967696e206164647265737360601b60448201526064016102f6565b333b15610a685760405162461bcd60e51b815260206004820152601560248201527418dbdb9d1c9858dd1cc81b9bdd08185b1b1bddd959605a1b60448201526064016102f6565b6001546001600160a01b0316331480610a8b57506002546001600160a01b031633145b610ad75760405162461bcd60e51b815260206004820152601560248201527f796f7520617265206e6f742061206d616e61676572000000000000000000000060448201526064016102f6565b600455565b33610b205760405162461bcd60e51b815260206004820152601460248201527377726f6e672063616c6c6572206164647265737360601b60448201526064016102f6565b333214610b665760405162461bcd60e51b815260206004820152601460248201527377726f6e67206f726967696e206164647265737360601b60448201526064016102f6565b333b15610bad5760405162461bcd60e51b815260206004820152601560248201527418dbdb9d1c9858dd1cc81b9bdd08185b1b1bddd959605a1b60448201526064016102f6565b3360009081526005602052604090205460ff161515600114610c115760405162461bcd60e51b815260206004820152601560248201527f796f7520617265206e6f7420616e20617574686f72000000000000000000000060448201526064016102f6565b6004543414610c625760405162461bcd60e51b815260206004820152601860248201527f696e636f72726563742065646974206665652076616c7565000000000000000060448201526064016102f6565b336000818152600560208181526040808420805460ff1916815581518084019092528482529490935252600190910190610c9c9082611907565b50336000818152600560208181526040808420600281018590556003810185905581518084019092528482529490935252600490910190610cdd9082611907565b50604080516020808201835260008083523381526005918290529290922090910190610d099082611907565b506040805134815242602082015233917f936c3467d2e648ff38da14cff7167214ed2c979f804e5a09dc070527febfb73d910160405180910390a2565b33610d8a5760405162461bcd60e51b815260206004820152601460248201527377726f6e672063616c6c6572206164647265737360601b60448201526064016102f6565b333214610dd05760405162461bcd60e51b815260206004820152601460248201527377726f6e67206f726967696e206164647265737360601b60448201526064016102f6565b333b15610e175760405162461bcd60e51b815260206004820152601560248201527418dbdb9d1c9858dd1cc81b9bdd08185b1b1bddd959605a1b60448201526064016102f6565b6001546001600160a01b03163314610e715760405162461bcd60e51b815260206004820152601460248201527f796f7520617265206e6f7420616e206f776e657200000000000000000000000060448201526064016102f6565b600280547fffffffffffffffffffffffff0000000000000000000000000000000000000000166001600160a01b0392909216919091179055565b600080610ee96040518060c0016040528060001515815260200160608152602001600081526020016000815260200160608152602001606081525090565b33610f2d5760405162461bcd60e51b815260206004820152601460248201527377726f6e672063616c6c6572206164647265737360601b60448201526064016102f6565b60035460045433600090815260056020908152604091829020825160c08101909352805460ff161515835260018101805491939284929084019190610f71906116c8565b80601f0160208091040260200160405190810160405280929190818152602001828054610f9d906116c8565b8015610fea5780601f10610fbf57610100808354040283529160200191610fea565b820191906000526020600020905b815481529060010190602001808311610fcd57829003601f168201915b505050505081526020016002820154815260200160038201548152602001600482018054611017906116c8565b80601f0160208091040260200160405190810160405280929190818152602001828054611043906116c8565b80156110905780601f1061106557610100808354040283529160200191611090565b820191906000526020600020905b81548152906001019060200180831161107357829003601f168201915b505050505081526020016005820180546110a9906116c8565b80601f01602080910402602001604051908101604052809291908181526020018280546110d5906116c8565b80156111225780601f106110f757610100808354040283529160200191611122565b820191906000526020600020905b81548152906001019060200180831161110557829003601f168201915b5050505050815250509050925092509250909192565b3361117c5760405162461bcd60e51b815260206004820152601460248201527377726f6e672063616c6c6572206164647265737360601b60448201526064016102f6565b3332146111c25760405162461bcd60e51b815260206004820152601460248201527377726f6e67206f726967696e206164647265737360601b60448201526064016102f6565b333b156112095760405162461bcd60e51b815260206004820152601560248201527418dbdb9d1c9858dd1cc81b9bdd08185b1b1bddd959605a1b60448201526064016102f6565b6001546001600160a01b031633148061122c57506002546001600160a01b031633145b6112785760405162461bcd60e51b815260206004820152601560248201527f796f7520617265206e6f742061206d616e61676572000000000000000000000060448201526064016102f6565b600080546040516001600160a01b038085169392163180156108fc0292909190818181858888f193505050501580156112b5573d6000803e3d6000fd5b5050565b336112fd5760405162461bcd60e51b815260206004820152601460248201527377726f6e672063616c6c6572206164647265737360601b60448201526064016102f6565b3332146113435760405162461bcd60e51b815260206004820152601460248201527377726f6e67206f726967696e206164647265737360601b60448201526064016102f6565b333b1561138a5760405162461bcd60e51b815260206004820152601560248201527418dbdb9d1c9858dd1cc81b9bdd08185b1b1bddd959605a1b60448201526064016102f6565b60035434146113db5760405162461bcd60e51b815260206004820152601c60248201527f696e636f7272656374207265676973746572206665652076616c75650000000060448201526064016102f6565b3360009081526005602052604090205460ff161561143b5760405162461bcd60e51b815260206004820152601960248201527f796f752061726520616c726561647920616e20617574686f720000000000000060448201526064016102f6565b336000908152600560205260409020805460ff19166001908117825501611463828483611769565b50336000818152600560209081526040918290204260029091018190558251348152918201527f337c681d74cfd18f609712415457eb18d1ddad06a5d103c080d30a5b0aaf40ad91016107c4565b6000602082840312156114c357600080fd5b5035919050565b6001600160a01b03811681146114df57600080fd5b50565b600080604083850312156114f557600080fd5b8235611500816114ca565b946020939093013593505050565b6000806020838503121561152157600080fd5b823567ffffffffffffffff8082111561153957600080fd5b818501915085601f83011261154d57600080fd5b81358181111561155c57600080fd5b86602082850101111561156e57600080fd5b60209290920196919550909350505050565b60006020828403121561159257600080fd5b813561159d816114ca565b9392505050565b6000815180845260005b818110156115ca576020818501810151868301820152016115ae565b506000602082860101526020601f19601f83011685010191505092915050565b838152826020820152606060408201528151151560608201526000602083015160c0608084015261161f6101208401826115a4565b9050604084015160a0840152606084015160c084015260808401517fffffffffffffffffffffffffffffffffffffffffffffffffffffffffffffffa0808584030160e086015261166f83836115a4565b925060a0860151915080858403016101008601525061168e82826115a4565b979650505050505050565b7f4e487b7100000000000000000000000000000000000000000000000000000000600052604160045260246000fd5b600181811c908216806116dc57607f821691505b602082108103611715577f4e487b7100000000000000000000000000000000000000000000000000000000600052602260045260246000fd5b50919050565b601f8211156105d257600081815260208120601f850160051c810160208610156117425750805b601f850160051c820191505b818110156117615782815560010161174e565b505050505050565b67ffffffffffffffff83111561178157611781611699565b6117958361178f83546116c8565b8361171b565b6000601f8411600181146117c957600085156117b15750838201355b600019600387901b1c1916600186901b178355611823565b600083815260209020601f19861690835b828110156117fa57868501358255602094850194600190920191016117da565b50868210156118175760001960f88860031b161c19848701351681555b505060018560011b0183555b5050505050565b818103611835575050565b61183f82546116c8565b67ffffffffffffffff81111561185757611857611699565b61186b8161186584546116c8565b8461171b565b6000601f82116001811461189f57600083156118875750848201545b600019600385901b1c1916600184901b178455611823565b600085815260209020601f19841690600086815260209020845b838110156118d957828601548255600195860195909101906020016118b9565b50858310156118f75781850154600019600388901b60f8161c191681555b5050505050600190811b01905550565b815167ffffffffffffffff81111561192157611921611699565b61192f8161186584546116c8565b602080601f831160018114611964576000841561194c5750858301515b600019600386901b1c1916600185901b178555611761565b600085815260208120601f198616915b8281101561199357888601518255948401946001909101908401611974565b50858210156118f757939096015160001960f8600387901b161c19169092555050600190811b0190555056fea2646970667358221220aee1dea1bc830587336245c0a925fbf31bf6b9b03b66d6e02e0619b9209c2e4264736f6c63430008110033",
  "linkReferences": {},
  "deployedLinkReferences": {}
}