{
  "_format": "hh-sol-artifact-1",
  "contractName": "NoteChain",
  "sourceName": "contracts/NoteChain.sol",
  "abi": [
    {
      "inputs": [],
      "stateMutability": "nonpayable",
      "type": "constructor"
    },
    {
      "anonymous": false,
      "inputs": [
        {
          "indexed": true,
          "internalType": "address",
          "name": "_authorAddress",
          "type": "address"
        },
        {
          "indexed": false,
          "internalType": "uint256",
          "name": "_paidAmount",
          "type": "uint256"
        },
        {
          "indexed": false,
          "internalType": "uint256",
          "name": "_feeTimestamp",
          "type": "uint256"
        }
      ],
      "name": "editFeeReceived",
      "type": "event"
    },
    {
      "anonymous": false,
      "inputs": [
        {
          "indexed": true,
          "internalType": "address",
          "name": "_authorAddress",
          "type": "address"
        },
        {
          "indexed": false,
          "internalType": "uint256",
          "name": "_paidAmount",
          "type": "uint256"
        },
        {
          "indexed": false,
          "internalType": "uint256",
          "name": "_feeTimestamp",
          "type": "uint256"
        }
      ],
      "name": "registerFeeReceived",
      "type": "event"
    },
    {
      "anonymous": false,
      "inputs": [
        {
          "indexed": true,
          "internalType": "address",
          "name": "_authorAddress",
          "type": "address"
        },
        {
          "indexed": false,
          "internalType": "uint256",
          "name": "_paidAmount",
          "type": "uint256"
        },
        {
          "indexed": false,
          "internalType": "uint256",
          "name": "_feeTimestamp",
          "type": "uint256"
        }
      ],
      "name": "unregisterFeeReceived",
      "type": "event"
    },
    {
      "inputs": [],
      "name": "contractAddress",
      "outputs": [
        {
          "internalType": "address",
          "name": "",
          "type": "address"
        }
      ],
      "stateMutability": "view",
      "type": "function"
    },
    {
      "inputs": [],
      "name": "contractManager",
      "outputs": [
        {
          "internalType": "address",
          "name": "",
          "type": "address"
        }
      ],
      "stateMutability": "view",
      "type": "function"
    },
    {
      "inputs": [],
      "name": "contractOwner",
      "outputs": [
        {
          "internalType": "address",
          "name": "",
          "type": "address"
        }
      ],
      "stateMutability": "view",
      "type": "function"
    },
    {
      "inputs": [],
      "name": "editPrice",
      "outputs": [
        {
          "internalType": "uint256",
          "name": "",
          "type": "uint256"
        }
      ],
      "stateMutability": "view",
      "type": "function"
    },
    {
      "inputs": [],
      "name": "getBootstrap",
      "outputs": [
        {
          "internalType": "uint256",
          "name": "",
          "type": "uint256"
        },
        {
          "internalType": "uint256",
          "name": "",
          "type": "uint256"
        },
        {
          "components": [
            {
              "internalType": "bool",
              "name": "isRegistered",
              "type": "bool"
            },
            {
              "internalType": "string",
              "name": "authorName",
              "type": "string"
            },
            {
              "internalType": "uint256",
              "name": "registerTime",
              "type": "uint256"
            },
            {
              "internalType": "uint256",
              "name": "lastEditTime",
              "type": "uint256"
            },
            {
              "internalType": "string",
              "name": "ipfsCurrentFileHash",
              "type": "string"
            },
            {
              "internalType": "string",
              "name": "ipfsPreviousFileHash",
              "type": "string"
            }
          ],
          "internalType": "struct NoteChain.Profile",
          "name": "",
          "type": "tuple"
        }
      ],
      "stateMutability": "view",
      "type": "function"
    },
    {
      "inputs": [
        {
          "internalType": "string",
          "name": "_authorName",
          "type": "string"
        }
      ],
      "name": "registerNewAuthor",
      "outputs": [],
      "stateMutability": "payable",
      "type": "function"
    },
    {
      "inputs": [],
      "name": "registerPrice",
      "outputs": [
        {
          "internalType": "uint256",
          "name": "",
          "type": "uint256"
        }
      ],
      "stateMutability": "view",
      "type": "function"
    },
    {
      "inputs": [],
      "name": "removeRegisteredAuthor",
      "outputs": [],
      "stateMutability": "payable",
      "type": "function"
    },
    {
      "inputs": [
        {
          "internalType": "string",
          "name": "_newAuthorName",
          "type": "string"
        }
      ],
      "name": "setAuthorName",
      "outputs": [],
      "stateMutability": "payable",
      "type": "function"
    },
    {
      "inputs": [
        {
          "internalType": "address",
          "name": "_newContractManager",
          "type": "address"
        }
      ],
      "name": "setContractManager",
      "outputs": [],
      "stateMutability": "nonpayable",
      "type": "function"
    },
    {
      "inputs": [
        {
          "internalType": "uint256",
          "name": "_newEditPrice",
          "type": "uint256"
        }
      ],
      "name": "setEditPrice",
      "outputs": [],
      "stateMutability": "nonpayable",
      "type": "function"
    },
    {
      "inputs": [
        {
          "internalType": "string",
          "name": "_newIpfsFileHash",
          "type": "string"
        }
      ],
      "name": "setIpfsFileHash",
      "outputs": [],
      "stateMutability": "payable",
      "type": "function"
    },
    {
      "inputs": [
        {
          "internalType": "uint256",
          "name": "_newRegisterPrice",
          "type": "uint256"
        }
      ],
      "name": "setRegisterPrice",
      "outputs": [],
      "stateMutability": "nonpayable",
      "type": "function"
    },
    {
      "inputs": [
        {
          "internalType": "address payable",
          "name": "_withdrawReceiver",
          "type": "address"
        }
      ],
      "name": "withdrawAllContractBalance",
      "outputs": [],
      "stateMutability": "nonpayable",
      "type": "function"
    },
    {
      "inputs": [
        {
          "internalType": "address payable",
          "name": "_withdrawReceiver",
          "type": "address"
        },
        {
          "internalType": "uint256",
          "name": "_withdrawAmount",
          "type": "uint256"
        }
      ],
      "name": "withdrawPartContractBalance",
      "outputs": [],
      "stateMutability": "nonpayable",
      "type": "function"
    },
    {
      "stateMutability": "payable",
      "type": "receive"
    }
  ],
  "bytecode": "0x608060405234801561001057600080fd5b50600080546001600160a01b031990811630178255600180548216339081179091556002805490921617905560038190556004556114cd806100536000396000f3fe6080604052600436106100ec5760003560e01c8063ac0018f61161008a578063d9290af911610059578063d9290af91461023f578063e18426e214610263578063f6b4dfb414610283578063ff7a38f3146102a357600080fd5b8063ac0018f6146101bf578063b39e12cf146101c7578063ce606ee0146101ff578063d8dbe4c91461021f57600080fd5b80636e8754ac116100c65780636e8754ac1461014d57806391c397101461017657806391ded7da1461018c578063a27b8a171461019f57600080fd5b80631e504c9c146100f85780632f09a9c61461011a57806369b5fb581461013a57600080fd5b366100f357005b600080fd5b34801561010457600080fd5b50610118610113366004610eed565b6102b6565b005b34801561012657600080fd5b50610118610135366004610f1e565b61035e565b610118610148366004610f4a565b61048f565b34801561015957600080fd5b5061016360045481565b6040519081526020015b60405180910390f35b34801561018257600080fd5b5061016360035481565b61011861019a366004610f4a565b6105dd565b3480156101ab57600080fd5b506101186101ba366004610eed565b6106f9565b610118610798565b3480156101d357600080fd5b506002546101e7906001600160a01b031681565b6040516001600160a01b03909116815260200161016d565b34801561020b57600080fd5b506001546101e7906001600160a01b031681565b34801561022b57600080fd5b5061011861023a366004610fbc565b61095c565b34801561024b57600080fd5b50610254610a2a565b60405161016d93929190611026565b34801561026f57600080fd5b5061011861027e366004610fbc565b610c90565b34801561028f57600080fd5b506000546101e7906001600160a01b031681565b6101186102b1366004610f4a565b610d6b565b336102dc5760405162461bcd60e51b81526004016102d3906110b7565b60405180910390fd5b3332146102fb5760405162461bcd60e51b81526004016102d3906110e5565b333b1561031a5760405162461bcd60e51b81526004016102d390611113565b6001546001600160a01b031633148061033d57506002546001600160a01b031633145b6103595760405162461bcd60e51b81526004016102d390611142565b600355565b3361037b5760405162461bcd60e51b81526004016102d3906110b7565b33321461039a5760405162461bcd60e51b81526004016102d3906110e5565b333b156103b95760405162461bcd60e51b81526004016102d390611113565b6001546001600160a01b03163314806103dc57506002546001600160a01b031633145b6103f85760405162461bcd60e51b81526004016102d390611142565b6000546001600160a01b0316318111156104545760405162461bcd60e51b815260206004820152601760248201527f696e76616c696420776974686472617720616d6f756e7400000000000000000060448201526064016102d3565b6040516001600160a01b0383169082156108fc029083906000818181858888f1935050505015801561048a573d6000803e3d6000fd5b505050565b336104ac5760405162461bcd60e51b81526004016102d3906110b7565b3332146104cb5760405162461bcd60e51b81526004016102d3906110e5565b333b156104ea5760405162461bcd60e51b81526004016102d390611113565b3360009081526005602052604090205460ff16151560011461051e5760405162461bcd60e51b81526004016102d390611171565b600454341461056a5760405162461bcd60e51b8152602060048201526018602482015277696e636f72726563742065646974206665652076616c756560401b60448201526064016102d3565b336000908152600560205260409020600101610587828483611253565b50336000818152600560209081526040918290204260039091018190558251348152918201527f1300c2fbb91b6ca0d10ef914e554b9b10eeaaf7e44c267438f6ca264d684b2c191015b60405180910390a25050565b336105fa5760405162461bcd60e51b81526004016102d3906110b7565b3332146106195760405162461bcd60e51b81526004016102d3906110e5565b333b156106385760405162461bcd60e51b81526004016102d390611113565b3360009081526005602052604090205460ff16151560011461066c5760405162461bcd60e51b81526004016102d390611171565b60045434146106b85760405162461bcd60e51b8152602060048201526018602482015277696e636f72726563742065646974206665652076616c756560401b60448201526064016102d3565b336000908152600560208190526040909120908101906106db906004018261130e565b50336000908152600560205260409020600401610587828483611253565b336107165760405162461bcd60e51b81526004016102d3906110b7565b3332146107355760405162461bcd60e51b81526004016102d3906110e5565b333b156107545760405162461bcd60e51b81526004016102d390611113565b6001546001600160a01b031633148061077757506002546001600160a01b031633145b6107935760405162461bcd60e51b81526004016102d390611142565b600455565b336107b55760405162461bcd60e51b81526004016102d3906110b7565b3332146107d45760405162461bcd60e51b81526004016102d3906110e5565b333b156107f35760405162461bcd60e51b81526004016102d390611113565b3360009081526005602052604090205460ff1615156001146108275760405162461bcd60e51b81526004016102d390611171565b60035434146108785760405162461bcd60e51b815260206004820152601c60248201527f696e636f7272656374207265676973746572206665652076616c75650000000060448201526064016102d3565b336000818152600560208181526040808420805460ff19168155815180840190925284825294909352526001909101906108b290826113e5565b503360008181526005602081815260408084206002810185905560038101859055815180840190925284825294909352526004909101906108f390826113e5565b5060408051602080820183526000808352338152600591829052929092209091019061091f90826113e5565b506040805134815242602082015233917fa9c5152ea85d9fa00e3c98906e15b1c2a6ae96def5312ed00f657667714419c7910160405180910390a2565b336109795760405162461bcd60e51b81526004016102d3906110b7565b3332146109985760405162461bcd60e51b81526004016102d3906110e5565b333b156109b75760405162461bcd60e51b81526004016102d390611113565b6001546001600160a01b03163314610a085760405162461bcd60e51b81526020600482015260146024820152733cb7ba9030b932903737ba1030b71037bbb732b960611b60448201526064016102d3565b600280546001600160a01b0319166001600160a01b0392909216919091179055565b600080610a686040518060c0016040528060001515815260200160608152602001600081526020016000815260200160608152602001606081525090565b33610a855760405162461bcd60e51b81526004016102d3906110b7565b60035460045433600090815260056020908152604091829020825160c08101909352805460ff161515835260018101805491939284929084019190610ac9906111b6565b80601f0160208091040260200160405190810160405280929190818152602001828054610af5906111b6565b8015610b425780601f10610b1757610100808354040283529160200191610b42565b820191906000526020600020905b815481529060010190602001808311610b2557829003601f168201915b505050505081526020016002820154815260200160038201548152602001600482018054610b6f906111b6565b80601f0160208091040260200160405190810160405280929190818152602001828054610b9b906111b6565b8015610be85780601f10610bbd57610100808354040283529160200191610be8565b820191906000526020600020905b815481529060010190602001808311610bcb57829003601f168201915b50505050508152602001600582018054610c01906111b6565b80601f0160208091040260200160405190810160405280929190818152602001828054610c2d906111b6565b8015610c7a5780601f10610c4f57610100808354040283529160200191610c7a565b820191906000526020600020905b815481529060010190602001808311610c5d57829003601f168201915b5050505050815250509050925092509250909192565b33610cad5760405162461bcd60e51b81526004016102d3906110b7565b333214610ccc5760405162461bcd60e51b81526004016102d3906110e5565b333b15610ceb5760405162461bcd60e51b81526004016102d390611113565b6001546001600160a01b0316331480610d0e57506002546001600160a01b031633145b610d2a5760405162461bcd60e51b81526004016102d390611142565b600080546040516001600160a01b038085169392163180156108fc0292909190818181858888f19350505050158015610d67573d6000803e3d6000fd5b5050565b33610d885760405162461bcd60e51b81526004016102d3906110b7565b333214610da75760405162461bcd60e51b81526004016102d3906110e5565b333b15610dc65760405162461bcd60e51b81526004016102d390611113565b6003543414610e175760405162461bcd60e51b815260206004820152601c60248201527f696e636f7272656374207265676973746572206665652076616c75650000000060448201526064016102d3565b3360009081526005602052604090205460ff1615610e775760405162461bcd60e51b815260206004820152601960248201527f796f752061726520616c726561647920616e20617574686f720000000000000060448201526064016102d3565b336000908152600560205260409020805460ff19166001908117825501610e9f828483611253565b50336000818152600560209081526040918290204260029091018190558251348152918201527fa81ab663a6c641b74e8e94e5c3c735253b9c8e4fc5e44fc25fe0dfaf6753366691016105d1565b600060208284031215610eff57600080fd5b5035919050565b6001600160a01b0381168114610f1b57600080fd5b50565b60008060408385031215610f3157600080fd5b8235610f3c81610f06565b946020939093013593505050565b60008060208385031215610f5d57600080fd5b823567ffffffffffffffff80821115610f7557600080fd5b818501915085601f830112610f8957600080fd5b813581811115610f9857600080fd5b866020828501011115610faa57600080fd5b60209290920196919550909350505050565b600060208284031215610fce57600080fd5b8135610fd981610f06565b9392505050565b6000815180845260005b8181101561100657602081850181015186830182015201610fea565b506000602082860101526020601f19601f83011685010191505092915050565b838152826020820152606060408201528151151560608201526000602083015160c0608084015261105b610120840182610fe0565b9050604084015160a0840152606084015160c08401526080840151605f19808584030160e086015261108d8383610fe0565b925060a086015191508085840301610100860152506110ac8282610fe0565b979650505050505050565b60208082526014908201527377726f6e672063616c6c6572206164647265737360601b604082015260600190565b60208082526014908201527377726f6e67206f726967696e206164647265737360601b604082015260600190565b60208082526015908201527418dbdb9d1c9858dd1cc81b9bdd08185b1b1bddd959605a1b604082015260600190565b6020808252601590820152743cb7ba9030b932903737ba10309036b0b730b3b2b960591b604082015260600190565b6020808252601590820152743cb7ba9030b932903737ba1030b71030baba3437b960591b604082015260600190565b634e487b7160e01b600052604160045260246000fd5b600181811c908216806111ca57607f821691505b6020821081036111ea57634e487b7160e01b600052602260045260246000fd5b50919050565b601f82111561048a57600081815260208120601f850160051c810160208610156112175750805b601f850160051c820191505b8181101561123657828155600101611223565b505050505050565b600019600383901b1c191660019190911b1790565b67ffffffffffffffff83111561126b5761126b6111a0565b61127f8361127983546111b6565b836111f0565b6000601f8411600181146112ad576000851561129b5750838201355b6112a5868261123e565b845550611307565b600083815260209020601f19861690835b828110156112de57868501358255602094850194600190920191016112be565b50868210156112fb5760001960f88860031b161c19848701351681555b505060018560011b0183555b5050505050565b818103611319575050565b61132382546111b6565b67ffffffffffffffff81111561133b5761133b6111a0565b61134f8161134984546111b6565b846111f0565b6000601f82116001811461137d576000831561136b5750848201545b611375848261123e565b855550611307565b600085815260209020601f19841690600086815260209020845b838110156113b75782860154825560019586019590910190602001611397565b50858310156113d55781850154600019600388901b60f8161c191681555b5050505050600190811b01905550565b815167ffffffffffffffff8111156113ff576113ff6111a0565b61140d8161134984546111b6565b602080601f83116001811461143c576000841561142a5750858301515b611434858261123e565b865550611236565b600085815260208120601f198616915b8281101561146b5788860151825594840194600190910190840161144c565b50858210156113d557939096015160001960f8600387901b161c19169092555050600190811b0190555056fea26469706673582212202a0f37a167d0ad830b5978920f64b7d5121383aca018e0741f16ef4f9a52f75364736f6c63430008110033",
  "linkReferences": {},
  "deployedLinkReferences": {}
}