{
  "_format": "hh-sol-artifact-1",
  "contractName": "NoteChain",
  "sourceName": "contracts/NoteChain.sol",
  "abi": [
    {
      "inputs": [],
      "stateMutability": "nonpayable",
      "type": "constructor"
    },
    {
      "anonymous": false,
      "inputs": [
        {
          "indexed": true,
          "internalType": "address",
          "name": "_authorAddress",
          "type": "address"
        },
        {
          "indexed": false,
          "internalType": "uint256",
          "name": "_eventTimestamp",
          "type": "uint256"
        }
      ],
      "name": "editEvent",
      "type": "event"
    },
    {
      "anonymous": false,
      "inputs": [
        {
          "indexed": true,
          "internalType": "address",
          "name": "_authorAddress",
          "type": "address"
        },
        {
          "indexed": false,
          "internalType": "uint256",
          "name": "_eventTimestamp",
          "type": "uint256"
        }
      ],
      "name": "opRegisterEvent",
      "type": "event"
    },
    {
      "anonymous": false,
      "inputs": [
        {
          "indexed": true,
          "internalType": "address",
          "name": "_authorAddress",
          "type": "address"
        },
        {
          "indexed": false,
          "internalType": "uint256",
          "name": "_eventTimestamp",
          "type": "uint256"
        }
      ],
      "name": "registerEvent",
      "type": "event"
    },
    {
      "anonymous": false,
      "inputs": [
        {
          "indexed": true,
          "internalType": "address",
          "name": "_authorAddress",
          "type": "address"
        },
        {
          "indexed": false,
          "internalType": "uint256",
          "name": "_eventTimestamp",
          "type": "uint256"
        }
      ],
      "name": "unregisterEvent",
      "type": "event"
    },
    {
      "inputs": [],
      "name": "contractAddress",
      "outputs": [
        {
          "internalType": "address",
          "name": "",
          "type": "address"
        }
      ],
      "stateMutability": "view",
      "type": "function"
    },
    {
      "inputs": [],
      "name": "contractManager",
      "outputs": [
        {
          "internalType": "address",
          "name": "",
          "type": "address"
        }
      ],
      "stateMutability": "view",
      "type": "function"
    },
    {
      "inputs": [],
      "name": "contractOperator",
      "outputs": [
        {
          "internalType": "address",
          "name": "",
          "type": "address"
        }
      ],
      "stateMutability": "view",
      "type": "function"
    },
    {
      "inputs": [],
      "name": "contractOwner",
      "outputs": [
        {
          "internalType": "address",
          "name": "",
          "type": "address"
        }
      ],
      "stateMutability": "view",
      "type": "function"
    },
    {
      "inputs": [],
      "name": "contractPaused",
      "outputs": [
        {
          "internalType": "bool",
          "name": "",
          "type": "bool"
        }
      ],
      "stateMutability": "view",
      "type": "function"
    },
    {
      "inputs": [],
      "name": "editPrice",
      "outputs": [
        {
          "internalType": "uint256",
          "name": "",
          "type": "uint256"
        }
      ],
      "stateMutability": "view",
      "type": "function"
    },
    {
      "inputs": [],
      "name": "getAuthorProfile",
      "outputs": [
        {
          "components": [
            {
              "internalType": "uint256",
              "name": "registerTime",
              "type": "uint256"
            },
            {
              "internalType": "uint256",
              "name": "lastEditTime",
              "type": "uint256"
            },
            {
              "internalType": "address",
              "name": "promoterAddress",
              "type": "address"
            },
            {
              "internalType": "bytes32",
              "name": "ipfsCurrentFileHash",
              "type": "bytes32"
            },
            {
              "internalType": "bytes32",
              "name": "ipfsPreviousFileHash",
              "type": "bytes32"
            },
            {
              "internalType": "bool",
              "name": "isRegistered",
              "type": "bool"
            }
          ],
          "internalType": "struct NoteChain.Profile",
          "name": "",
          "type": "tuple"
        }
      ],
      "stateMutability": "view",
      "type": "function"
    },
    {
      "inputs": [],
      "name": "getBootstrap",
      "outputs": [
        {
          "internalType": "bool",
          "name": "",
          "type": "bool"
        },
        {
          "internalType": "uint256",
          "name": "",
          "type": "uint256"
        },
        {
          "internalType": "uint256",
          "name": "",
          "type": "uint256"
        },
        {
          "internalType": "uint256",
          "name": "",
          "type": "uint256"
        },
        {
          "internalType": "uint256",
          "name": "",
          "type": "uint256"
        },
        {
          "components": [
            {
              "internalType": "uint256",
              "name": "registerTime",
              "type": "uint256"
            },
            {
              "internalType": "uint256",
              "name": "lastEditTime",
              "type": "uint256"
            },
            {
              "internalType": "address",
              "name": "promoterAddress",
              "type": "address"
            },
            {
              "internalType": "bytes32",
              "name": "ipfsCurrentFileHash",
              "type": "bytes32"
            },
            {
              "internalType": "bytes32",
              "name": "ipfsPreviousFileHash",
              "type": "bytes32"
            },
            {
              "internalType": "bool",
              "name": "isRegistered",
              "type": "bool"
            }
          ],
          "internalType": "struct NoteChain.Profile",
          "name": "",
          "type": "tuple"
        }
      ],
      "stateMutability": "view",
      "type": "function"
    },
    {
      "inputs": [],
      "name": "getRegisteredAuthors",
      "outputs": [
        {
          "internalType": "address[]",
          "name": "",
          "type": "address[]"
        }
      ],
      "stateMutability": "view",
      "type": "function"
    },
    {
      "inputs": [
        {
          "internalType": "address",
          "name": "_authorAddress",
          "type": "address"
        },
        {
          "internalType": "bytes32",
          "name": "_ipfsCurrentFileHash",
          "type": "bytes32"
        },
        {
          "internalType": "bytes32",
          "name": "_ipfsPreviousFileHash",
          "type": "bytes32"
        },
        {
          "internalType": "address",
          "name": "_promoterAddress",
          "type": "address"
        }
      ],
      "name": "opRegisterNewAuthor",
      "outputs": [],
      "stateMutability": "nonpayable",
      "type": "function"
    },
    {
      "inputs": [],
      "name": "promoterEditFee",
      "outputs": [
        {
          "internalType": "uint256",
          "name": "",
          "type": "uint256"
        }
      ],
      "stateMutability": "view",
      "type": "function"
    },
    {
      "inputs": [],
      "name": "promoterRegisterFee",
      "outputs": [
        {
          "internalType": "uint256",
          "name": "",
          "type": "uint256"
        }
      ],
      "stateMutability": "view",
      "type": "function"
    },
    {
      "inputs": [],
      "name": "registerNewAuthor",
      "outputs": [],
      "stateMutability": "payable",
      "type": "function"
    },
    {
      "inputs": [
        {
          "internalType": "address payable",
          "name": "_promoterAddress",
          "type": "address"
        }
      ],
      "name": "registerNewPromotedAuthor",
      "outputs": [],
      "stateMutability": "payable",
      "type": "function"
    },
    {
      "inputs": [],
      "name": "registerPrice",
      "outputs": [
        {
          "internalType": "uint256",
          "name": "",
          "type": "uint256"
        }
      ],
      "stateMutability": "view",
      "type": "function"
    },
    {
      "inputs": [],
      "name": "removeRegisteredAuthor",
      "outputs": [],
      "stateMutability": "nonpayable",
      "type": "function"
    },
    {
      "inputs": [],
      "name": "restoreIpfsFileHash",
      "outputs": [],
      "stateMutability": "nonpayable",
      "type": "function"
    },
    {
      "inputs": [
        {
          "internalType": "address",
          "name": "_newContractManager",
          "type": "address"
        }
      ],
      "name": "setContractManager",
      "outputs": [],
      "stateMutability": "nonpayable",
      "type": "function"
    },
    {
      "inputs": [
        {
          "internalType": "address",
          "name": "_newContractOperator",
          "type": "address"
        }
      ],
      "name": "setContractOperator",
      "outputs": [],
      "stateMutability": "nonpayable",
      "type": "function"
    },
    {
      "inputs": [
        {
          "internalType": "uint256",
          "name": "_newEditPrice",
          "type": "uint256"
        }
      ],
      "name": "setEditPrice",
      "outputs": [],
      "stateMutability": "nonpayable",
      "type": "function"
    },
    {
      "inputs": [
        {
          "internalType": "bytes32",
          "name": "_newIpfsFileHash",
          "type": "bytes32"
        }
      ],
      "name": "setIpfsFileHash",
      "outputs": [],
      "stateMutability": "payable",
      "type": "function"
    },
    {
      "inputs": [
        {
          "internalType": "uint256",
          "name": "_newPromoterEditFee",
          "type": "uint256"
        }
      ],
      "name": "setPromoterEditFee",
      "outputs": [],
      "stateMutability": "nonpayable",
      "type": "function"
    },
    {
      "inputs": [
        {
          "internalType": "uint256",
          "name": "_newPromoterRegisterFee",
          "type": "uint256"
        }
      ],
      "name": "setPromoterRegisterFee",
      "outputs": [],
      "stateMutability": "nonpayable",
      "type": "function"
    },
    {
      "inputs": [
        {
          "internalType": "uint256",
          "name": "_newRegisterPrice",
          "type": "uint256"
        }
      ],
      "name": "setRegisterPrice",
      "outputs": [],
      "stateMutability": "nonpayable",
      "type": "function"
    },
    {
      "inputs": [],
      "name": "switchPaused",
      "outputs": [],
      "stateMutability": "nonpayable",
      "type": "function"
    },
    {
      "inputs": [
        {
          "internalType": "address payable",
          "name": "_withdrawReceiver",
          "type": "address"
        },
        {
          "internalType": "uint256",
          "name": "_withdrawAmount",
          "type": "uint256"
        }
      ],
      "name": "withdrawContractBalance",
      "outputs": [],
      "stateMutability": "nonpayable",
      "type": "function"
    },
    {
      "stateMutability": "payable",
      "type": "receive"
    }
  ],
  "bytecode": "0x608060405234801561001057600080fd5b50600480546001600160a01b03199081163017909155600580548216736d97236cdb31733e8354666f29e48e429386f3601790556006805482163390811790915560078054909216179055670de0b6b3a76400006000556706f05b59d3b2000060025567016345785d8a000060015566b1a2bc2ec50000600355611f1c806100996000396000f3fe6080604052600436106101a55760003560e01c80639f0b5975116100e1578063c963c9861161008a578063d8dbe4c911610064578063d8dbe4c914610436578063d9290af914610456578063f6b4dfb41461047d578063fbea14721461049d57600080fd5b8063c963c986146103ee578063ce606ee014610401578063d8a792151461042157600080fd5b8063ac0018f6116100bb578063ac0018f614610399578063af66be3f146103ae578063b39e12cf146103ce57600080fd5b80639f0b597514610350578063a27b8a1714610366578063a47733ae1461038657600080fd5b80637ba451411161014e57806391c397101161012857806391c39710146102cc57806398214a4d146102e25780639b561135146103025780639d600b491461033a57600080fd5b80637ba45141146102735780637ee1d9a71461027b5780638a67456a1461029b57600080fd5b806333746a6f1161017f57806333746a6f146102085780636e8754ac146102285780636f7d4cff1461025157600080fd5b806306e43475146101b15780631e504c9c146101d3578063278c09b4146101f357600080fd5b366101ac57005b600080fd5b3480156101bd57600080fd5b506101d16101cc366004611cfc565b6104bf565b005b3480156101df57600080fd5b506101d16101ee366004611cfc565b610594565b3480156101ff57600080fd5b506101d1610608565b34801561021457600080fd5b506101d1610223366004611d2d565b61080f565b34801561023457600080fd5b5061023e60015481565b6040519081526020015b60405180910390f35b34801561025d57600080fd5b50610266610956565b6040516102489190611d59565b6101d16109fc565b34801561028757600080fd5b506101d1610296366004611da6565b610c9b565b3480156102a757600080fd5b506007546102bc90600160a01b900460ff1681565b6040519015158152602001610248565b3480156102d857600080fd5b5061023e60005481565b3480156102ee57600080fd5b506101d16102fd366004611cfc565b610ebf565b34801561030e57600080fd5b50600754610322906001600160a01b031681565b6040516001600160a01b039091168152602001610248565b34801561034657600080fd5b5061023e60035481565b34801561035c57600080fd5b5061023e60025481565b34801561037257600080fd5b506101d1610381366004611cfc565b610f84565b6101d1610394366004611cfc565b610ff8565b3480156103a557600080fd5b506101d16112d4565b3480156103ba57600080fd5b506101d16103c9366004611df0565b611507565b3480156103da57600080fd5b50600654610322906001600160a01b031681565b6101d16103fc366004611df0565b6115fb565b34801561040d57600080fd5b50600554610322906001600160a01b031681565b34801561042d57600080fd5b506101d1611a0f565b34801561044257600080fd5b506101d1610451366004611df0565b611aba565b34801561046257600080fd5b5061046b611b14565b60405161024896959493929190611e14565b34801561048957600080fd5b50600454610322906001600160a01b031681565b3480156104a957600080fd5b506104b2611c1e565b6040516102489190611e92565b6005546001600160a01b03163314806104e257506006546001600160a01b031633145b6105335760405162461bcd60e51b815260206004820152601660248201527f596f7520617265206e6f742061206d616e61676572210000000000000000000060448201526064015b60405180910390fd5b600054811061058f5760405162461bcd60e51b815260206004820152602260248201527f57726f6e672070726f6d6f746572207265676973746572206665652076616c75604482015261652160f01b606482015260840161052a565b600255565b6005546001600160a01b03163314806105b757506006546001600160a01b031633145b6106035760405162461bcd60e51b815260206004820152601660248201527f596f7520617265206e6f742061206d616e616765722100000000000000000000604482015260640161052a565b600055565b600754600160a01b900460ff161561066d5760405162461bcd60e51b815260206004820152602260248201527f53657276696365207061757365642064756520746f206d61696e74656e616e63604482015261652160f01b606482015260840161052a565b336106b15760405162461bcd60e51b81526020600482015260146024820152735a65726f2063616c6c657220616464726573732160601b604482015260640161052a565b3332146107005760405162461bcd60e51b815260206004820152601560248201527f57726f6e67206f726967696e2061646472657373210000000000000000000000604482015260640161052a565b333b1561074f5760405162461bcd60e51b815260206004820152601660248201527f436f6e747261637473206e6f7420616c6c6f7765642100000000000000000000604482015260640161052a565b3360009081526009602052604090206005015460ff1615156001146107b65760405162461bcd60e51b815260206004820152601a60248201527f596f7520617265206e6f7420616e20617574686f722079657421000000000000604482015260640161052a565b336000818152600960209081526040918290206004810154600382015542600190910181905591519182527fd753a37b2c8dddd96ff531876ed175cc6e8ea9b3c7e5ded022ed1f4920af2ae991015b60405180910390a2565b6005546001600160a01b031633146108695760405162461bcd60e51b815260206004820152601560248201527f596f7520617265206e6f7420616e206f776e6572210000000000000000000000604482015260640161052a565b6001600160a01b0382166108bf5760405162461bcd60e51b815260206004820152601360248201527f5a65726f206164647265737320676976656e2100000000000000000000000000604482015260640161052a565b6004546001600160a01b03163181111561091b5760405162461bcd60e51b815260206004820152601760248201527f496e76616c69642077697468647261772076616c756521000000000000000000604482015260640161052a565b6040516001600160a01b0383169082156108fc029083906000818181858888f19350505050158015610951573d6000803e3d6000fd5b505050565b60603361099c5760405162461bcd60e51b81526020600482015260146024820152735a65726f2063616c6c657220616464726573732160601b604482015260640161052a565b60088054806020026020016040519081016040528092919081815260200182805480156109f257602002820191906000526020600020905b81546001600160a01b031681526001909101906020018083116109d4575b5050505050905090565b600754600160a01b900460ff1615610a615760405162461bcd60e51b815260206004820152602260248201527f53657276696365207061757365642064756520746f206d61696e74656e616e63604482015261652160f01b606482015260840161052a565b33610aa55760405162461bcd60e51b81526020600482015260146024820152735a65726f2063616c6c657220616464726573732160601b604482015260640161052a565b333214610af45760405162461bcd60e51b815260206004820152601560248201527f57726f6e67206f726967696e2061646472657373210000000000000000000000604482015260640161052a565b333b15610b435760405162461bcd60e51b815260206004820152601660248201527f436f6e747261637473206e6f7420616c6c6f7765642100000000000000000000604482015260640161052a565b6000543414610b945760405162461bcd60e51b815260206004820152601d60248201527f496e636f7272656374207265676973746572206665652076616c756521000000604482015260640161052a565b3360009081526009602052604090206005015460ff1615610bf75760405162461bcd60e51b815260206004820152601a60248201527f596f752061726520616c726561647920616e20617574686f7221000000000000604482015260640161052a565b3360008181526009602052604080822060058101805460ff1916600190811790915542918290556008805491820181559093527ff3f7a9fe364faab93b216da50a3214154f22a0a2b415b23a84c8169e8b636ee3909201805473ffffffffffffffffffffffffffffffffffffffff191684179055517f45d3ff9b6ce572742ea4a64ce7ec2e69e3b16a10d34058badf3ec27a5d938c61916108059190815260200190565b6005546001600160a01b0316331480610cbe57506006546001600160a01b031633145b80610cd357506007546001600160a01b031633145b610d1f5760405162461bcd60e51b815260206004820152601860248201527f596f7520617265206e6f7420616e206f70657261746f72210000000000000000604482015260640161052a565b6001600160a01b038416610d755760405162461bcd60e51b815260206004820152601460248201527f5a65726f20617574686f72206164647265737321000000000000000000000000604482015260640161052a565b6001600160a01b03841660009081526009602052604090206005015460ff1615610de15760405162461bcd60e51b815260206004820152601a60248201527f417574686f7220616c7265616479207265676973746572656421000000000000604482015260640161052a565b6001600160a01b0380851660008181526009602052604080822060058101805460ff191660019081179091556003820189905560048201889055428083556002909201805496881673ffffffffffffffffffffffffffffffffffffffff199788161790556008805491820181559093527ff3f7a9fe364faab93b216da50a3214154f22a0a2b415b23a84c8169e8b636ee390920180549094168317909355915190917f111bcd053abeab9ee509174d10fd281b50eeb52665992b87b2c5c54ed47d511491610eb191815260200190565b60405180910390a250505050565b6005546001600160a01b0316331480610ee257506006546001600160a01b031633145b610f2e5760405162461bcd60e51b815260206004820152601660248201527f596f7520617265206e6f742061206d616e616765722100000000000000000000604482015260640161052a565b6001548110610f7f5760405162461bcd60e51b815260206004820152601e60248201527f57726f6e672070726f6d6f7465722065646974206665652076616c7565210000604482015260640161052a565b600355565b6005546001600160a01b0316331480610fa757506006546001600160a01b031633145b610ff35760405162461bcd60e51b815260206004820152601660248201527f596f7520617265206e6f742061206d616e616765722100000000000000000000604482015260640161052a565b600155565b600754600160a01b900460ff161561105d5760405162461bcd60e51b815260206004820152602260248201527f53657276696365207061757365642064756520746f206d61696e74656e616e63604482015261652160f01b606482015260840161052a565b336110a15760405162461bcd60e51b81526020600482015260146024820152735a65726f2063616c6c657220616464726573732160601b604482015260640161052a565b3332146110f05760405162461bcd60e51b815260206004820152601560248201527f57726f6e67206f726967696e2061646472657373210000000000000000000000604482015260640161052a565b333b1561113f5760405162461bcd60e51b815260206004820152601660248201527f436f6e747261637473206e6f7420616c6c6f7765642100000000000000000000604482015260640161052a565b60015434146111905760405162461bcd60e51b815260206004820152601960248201527f496e636f72726563742065646974206665652076616c75652100000000000000604482015260640161052a565b3360009081526009602052604090206005015460ff1615156001146111f75760405162461bcd60e51b815260206004820152601a60248201527f596f7520617265206e6f7420616e20617574686f722079657421000000000000604482015260640161052a565b336000908152600960205260409020600381018054600483015582905542600190910155600254158015906112465750336000908152600960205260409020600201546001600160a01b031615155b1561129b57336000908152600960205260408082206002015460035491516001600160a01b039091169283926108fc811502929091818181858888f19350505050158015611298573d6000803e3d6000fd5b50505b60405142815233907fd753a37b2c8dddd96ff531876ed175cc6e8ea9b3c7e5ded022ed1f4920af2ae9906020015b60405180910390a250565b600754600160a01b900460ff16156113395760405162461bcd60e51b815260206004820152602260248201527f53657276696365207061757365642064756520746f206d61696e74656e616e63604482015261652160f01b606482015260840161052a565b3361137d5760405162461bcd60e51b81526020600482015260146024820152735a65726f2063616c6c657220616464726573732160601b604482015260640161052a565b3332146113cc5760405162461bcd60e51b815260206004820152601560248201527f57726f6e67206f726967696e2061646472657373210000000000000000000000604482015260640161052a565b333b1561141b5760405162461bcd60e51b815260206004820152601660248201527f436f6e747261637473206e6f7420616c6c6f7765642100000000000000000000604482015260640161052a565b3360009081526009602052604090206005015460ff1615156001146114825760405162461bcd60e51b815260206004820152601a60248201527f596f7520617265206e6f7420616e20617574686f722079657421000000000000604482015260640161052a565b336000818152600960205260408082208281556001810183905560028101805473ffffffffffffffffffffffffffffffffffffffff191690556003810183905560048101929092556005909101805460ff19169055517fa949c935fa0b322fc435953ceceeab6580af7d2cd7adac59c91e8a642fd2c9b6906108059042815260200190565b6005546001600160a01b031633148061152a57506006546001600160a01b031633145b6115765760405162461bcd60e51b815260206004820152601660248201527f596f7520617265206e6f742061206d616e616765722100000000000000000000604482015260640161052a565b6001600160a01b0381166115cc5760405162461bcd60e51b815260206004820152601360248201527f5a65726f206164647265737320676976656e2100000000000000000000000000604482015260640161052a565b6006805473ffffffffffffffffffffffffffffffffffffffff19166001600160a01b0392909216919091179055565b600754600160a01b900460ff16156116605760405162461bcd60e51b815260206004820152602260248201527f53657276696365207061757365642064756520746f206d61696e74656e616e63604482015261652160f01b606482015260840161052a565b336116a45760405162461bcd60e51b81526020600482015260146024820152735a65726f2063616c6c657220616464726573732160601b604482015260640161052a565b3332146116f35760405162461bcd60e51b815260206004820152601560248201527f57726f6e67206f726967696e2061646472657373210000000000000000000000604482015260640161052a565b333b156117425760405162461bcd60e51b815260206004820152601660248201527f436f6e747261637473206e6f7420616c6c6f7765642100000000000000000000604482015260640161052a565b60005434146117935760405162461bcd60e51b815260206004820152601d60248201527f496e636f7272656374207265676973746572206665652076616c756521000000604482015260640161052a565b3360009081526009602052604090206005015460ff16156117f65760405162461bcd60e51b815260206004820152601a60248201527f596f752061726520616c726561647920616e20617574686f7221000000000000604482015260640161052a565b6001600160a01b03811661184c5760405162461bcd60e51b815260206004820152601660248201527f5a65726f2070726f6d6f74657220616464726573732100000000000000000000604482015260640161052a565b336001600160a01b038216036118a45760405162461bcd60e51b815260206004820152601760248201527f57726f6e672070726f6d6f746572206164647265737321000000000000000000604482015260640161052a565b6001600160a01b03811660009081526009602052604090206005015460ff1615156001146119145760405162461bcd60e51b815260206004820152601b60248201527f50726f6d6f746572206973206e6f742072656769737465726564210000000000604482015260640161052a565b33600081815260096020526040812060058101805460ff19166001908117909155428255600291820180546001600160a01b03871673ffffffffffffffffffffffffffffffffffffffff19918216179091556008805492830181559093527ff3f7a9fe364faab93b216da50a3214154f22a0a2b415b23a84c8169e8b636ee3018054909216909217905554156119dd576002546040516001600160a01b0383169180156108fc02916000818181858888f193505050501580156119db573d6000803e3d6000fd5b505b60405142815233907f45d3ff9b6ce572742ea4a64ce7ec2e69e3b16a10d34058badf3ec27a5d938c61906020016112c9565b6005546001600160a01b0316331480611a3257506006546001600160a01b031633145b611a7e5760405162461bcd60e51b815260206004820152601660248201527f596f7520617265206e6f742061206d616e616765722100000000000000000000604482015260640161052a565b600780547fffffffffffffffffffffff00ffffffffffffffffffffffffffffffffffffffff8116600160a01b9182900460ff1615909102179055565b6005546001600160a01b031633146115765760405162461bcd60e51b815260206004820152601560248201527f596f7520617265206e6f7420616e206f776e6572210000000000000000000000604482015260640161052a565b6040805160c081018252600080825260208201819052918101829052606081018290526080810182905260a08101829052819081908190819033611b915760405162461bcd60e51b81526020600482015260146024820152735a65726f2063616c6c657220616464726573732160601b604482015260640161052a565b50506007546000805460018054600280546003805433885260096020908152604098899020895160c081018b52815481529781015491880191909152938401546001600160a01b03169786019790975282015460608501526004820154608085015260059091015460ff908116151560a0850152600160a01b909604909516999298509650929450909250565b6040805160c081018252600080825260208201819052918101829052606081018290526080810182905260a081019190915233611c945760405162461bcd60e51b81526020600482015260146024820152735a65726f2063616c6c657220616464726573732160601b604482015260640161052a565b5033600090815260096020908152604091829020825160c0810184528154815260018201549281019290925260028101546001600160a01b031692820192909252600382015460608201526004820154608082015260059091015460ff16151560a082015290565b600060208284031215611d0e57600080fd5b5035919050565b6001600160a01b0381168114611d2a57600080fd5b50565b60008060408385031215611d4057600080fd5b8235611d4b81611d15565b946020939093013593505050565b6020808252825182820181905260009190848201906040850190845b81811015611d9a5783516001600160a01b031683529284019291840191600101611d75565b50909695505050505050565b60008060008060808587031215611dbc57600080fd5b8435611dc781611d15565b935060208501359250604085013591506060850135611de581611d15565b939692955090935050565b600060208284031215611e0257600080fd5b8135611e0d81611d15565b9392505050565b6000610160820190508715158252866020830152856040830152846060830152836080830152611e8760a083018480518252602081015160208301526001600160a01b036040820151166040830152606081015160608301526080810151608083015260a0810151151560a08301525050565b979650505050505050565b60c08101611ee0828480518252602081015160208301526001600160a01b036040820151166040830152606081015160608301526080810151608083015260a0810151151560a08301525050565b9291505056fea264697066735822122005dc537f5900184359ef108de0e617d0e74195564d0c7d6d8bb2c826bf678b3164736f6c63430008110033",
  "linkReferences": {},
  "deployedLinkReferences": {}
}